{
    "_format": "hh-sol-artifact-1",
    "contractName": "Marketplace",
    "sourceName": "contracts/marketplace.sol",
    "abi": [
        {
            "anonymous": false,
            "inputs": [
                {
                    "indexed": false,
                    "internalType": "uint256",
                    "name": "itemId",
                    "type": "uint256"
                },
                {
                    "indexed": false,
                    "internalType": "address",
                    "name": "nftContract",
                    "type": "address"
                },
                {
                    "indexed": false,
                    "internalType": "uint256",
                    "name": "tokenId",
                    "type": "uint256"
                },
                {
                    "indexed": false,
                    "internalType": "uint256",
                    "name": "amount",
                    "type": "uint256"
                },
                {
                    "indexed": false,
                    "internalType": "string",
                    "name": "name",
                    "type": "string"
                },
                {
                    "indexed": false,
                    "internalType": "uint256",
                    "name": "price",
                    "type": "uint256"
                },
                {
                    "indexed": false,
                    "internalType": "address",
                    "name": "seller",
                    "type": "address"
                }
            ],
            "name": "ItemAdded",
            "type": "event"
        },
        {
            "anonymous": false,
            "inputs": [
                {
                    "indexed": false,
                    "internalType": "uint256",
                    "name": "itemId",
                    "type": "uint256"
                },
                {
                    "indexed": false,
                    "internalType": "address",
                    "name": "buyer",
                    "type": "address"
                }
            ],
            "name": "ItemSold",
            "type": "event"
        },
        {
            "anonymous": false,
            "inputs": [
                {
                    "indexed": true,
                    "internalType": "address",
                    "name": "previousOwner",
                    "type": "address"
                },
                {
                    "indexed": true,
                    "internalType": "address",
                    "name": "newOwner",
                    "type": "address"
                }
            ],
            "name": "OwnershipTransferred",
            "type": "event"
        },
        {
            "inputs": [
                {
                    "internalType": "address",
                    "name": "_nftContract",
                    "type": "address"
                },
                {
                    "internalType": "uint256",
                    "name": "_tokenId",
                    "type": "uint256"
                },
                {
                    "internalType": "uint256",
                    "name": "_amount",
                    "type": "uint256"
                },
                {
                    "internalType": "string",
                    "name": "_name",
                    "type": "string"
                },
                {
                    "internalType": "uint256",
                    "name": "_price",
                    "type": "uint256"
                }
            ],
            "name": "addItem",
            "outputs": [],
            "stateMutability": "nonpayable",
            "type": "function"
        },
        {
            "inputs": [
                {
                    "internalType": "uint256",
                    "name": "_itemId",
                    "type": "uint256"
                },
                {
                    "internalType": "uint256",
                    "name": "_amount",
                    "type": "uint256"
                }
            ],
            "name": "buyItem",
            "outputs": [],
            "stateMutability": "payable",
            "type": "function"
        },
        {
            "inputs": [],
            "name": "checkPlatformTotalFees",
            "outputs": [
                {
                    "internalType": "uint256",
                    "name": "",
                    "type": "uint256"
                }
            ],
            "stateMutability": "view",
            "type": "function"
        },
        {
            "inputs": [
                {
                    "internalType": "address payable",
                    "name": "_toAddress",
                    "type": "address"
                }
            ],
            "name": "emergencyWithdrawAll",
            "outputs": [],
            "stateMutability": "nonpayable",
            "type": "function"
        },
        {
            "inputs": [],
            "name": "fees",
            "outputs": [
                {
                    "internalType": "uint256",
                    "name": "",
                    "type": "uint256"
                }
            ],
            "stateMutability": "view",
            "type": "function"
        },
        {
            "inputs": [],
            "name": "isPaused",
            "outputs": [
                {
                    "internalType": "bool",
                    "name": "",
                    "type": "bool"
                }
            ],
            "stateMutability": "view",
            "type": "function"
        },
        {
            "inputs": [],
            "name": "itemCount",
            "outputs": [
                {
                    "internalType": "uint256",
                    "name": "",
                    "type": "uint256"
                }
            ],
            "stateMutability": "view",
            "type": "function"
        },
        {
            "inputs": [
                {
                    "internalType": "uint256",
                    "name": "",
                    "type": "uint256"
                }
            ],
            "name": "items",
            "outputs": [
                {
                    "internalType": "address",
                    "name": "nftContract",
                    "type": "address"
                },
                {
                    "internalType": "uint256",
                    "name": "tokenId",
                    "type": "uint256"
                },
                {
                    "internalType": "uint256",
                    "name": "amount",
                    "type": "uint256"
                },
                {
                    "internalType": "string",
                    "name": "name",
                    "type": "string"
                },
                {
                    "internalType": "uint256",
                    "name": "price",
                    "type": "uint256"
                },
                {
                    "internalType": "address payable",
                    "name": "seller",
                    "type": "address"
                },
                {
                    "internalType": "bool",
                    "name": "sold",
                    "type": "bool"
                }
            ],
            "stateMutability": "view",
            "type": "function"
        },
        {
            "inputs": [
                {
                    "internalType": "address",
                    "name": "",
                    "type": "address"
                },
                {
                    "internalType": "address",
                    "name": "",
                    "type": "address"
                },
                {
                    "internalType": "uint256[]",
                    "name": "",
                    "type": "uint256[]"
                },
                {
                    "internalType": "uint256[]",
                    "name": "",
                    "type": "uint256[]"
                },
                {
                    "internalType": "bytes",
                    "name": "",
                    "type": "bytes"
                }
            ],
            "name": "onERC1155BatchReceived",
            "outputs": [
                {
                    "internalType": "bytes4",
                    "name": "",
                    "type": "bytes4"
                }
            ],
            "stateMutability": "nonpayable",
            "type": "function"
        },
        {
            "inputs": [
                {
                    "internalType": "address",
                    "name": "",
                    "type": "address"
                },
                {
                    "internalType": "address",
                    "name": "",
                    "type": "address"
                },
                {
                    "internalType": "uint256",
                    "name": "",
                    "type": "uint256"
                },
                {
                    "internalType": "uint256",
                    "name": "",
                    "type": "uint256"
                },
                {
                    "internalType": "bytes",
                    "name": "",
                    "type": "bytes"
                }
            ],
            "name": "onERC1155Received",
            "outputs": [
                {
                    "internalType": "bytes4",
                    "name": "",
                    "type": "bytes4"
                }
            ],
            "stateMutability": "nonpayable",
            "type": "function"
        },
        {
            "inputs": [],
            "name": "owner",
            "outputs": [
                {
                    "internalType": "address",
                    "name": "",
                    "type": "address"
                }
            ],
            "stateMutability": "view",
            "type": "function"
        },
        {
            "inputs": [],
            "name": "pauseMarketPlace",
            "outputs": [],
            "stateMutability": "nonpayable",
            "type": "function"
        },
        {
            "inputs": [],
            "name": "renounceOwnership",
            "outputs": [],
            "stateMutability": "nonpayable",
            "type": "function"
        },
        {
            "inputs": [],
            "name": "resumeMarketPlace",
            "outputs": [],
            "stateMutability": "nonpayable",
            "type": "function"
        },
        {
            "inputs": [
                {
                    "internalType": "uint256",
                    "name": "_fees",
                    "type": "uint256"
                }
            ],
            "name": "setFees",
            "outputs": [],
            "stateMutability": "nonpayable",
            "type": "function"
        },
        {
            "inputs": [
                {
                    "internalType": "bytes4",
                    "name": "interfaceId",
                    "type": "bytes4"
                }
            ],
            "name": "supportsInterface",
            "outputs": [
                {
                    "internalType": "bool",
                    "name": "",
                    "type": "bool"
                }
            ],
            "stateMutability": "view",
            "type": "function"
        },
        {
            "inputs": [
                {
                    "internalType": "address",
                    "name": "newOwner",
                    "type": "address"
                }
            ],
            "name": "transferOwnership",
            "outputs": [],
            "stateMutability": "nonpayable",
            "type": "function"
        },
        {
            "inputs": [
                {
                    "internalType": "address payable",
                    "name": "_toAddress",
                    "type": "address"
                },
                {
                    "internalType": "uint256",
                    "name": "_amountFees",
                    "type": "uint256"
                }
            ],
            "name": "withdrawPlatformFees",
            "outputs": [],
            "stateMutability": "nonpayable",
            "type": "function"
        }
    ],
    "bytecode": "0x60806040523480156200001157600080fd5b5062000032620000266200003860201b60201c565b6200004060201b60201c565b62000104565b600033905090565b60008060009054906101000a900473ffffffffffffffffffffffffffffffffffffffff169050816000806101000a81548173ffffffffffffffffffffffffffffffffffffffff021916908373ffffffffffffffffffffffffffffffffffffffff1602179055508173ffffffffffffffffffffffffffffffffffffffff168173ffffffffffffffffffffffffffffffffffffffff167f8be0079c531659141344cd1fd0a4f28419497f9722a3daafe3b4186f6b6457e060405160405180910390a35050565b612b0780620001146000396000f3fe6080604052600436106101095760003560e01c80639979c00911610095578063bfb231d211610064578063bfb231d214610322578063c3fed64014610365578063e2082e7914610390578063f23a6e61146103a7578063f2fde38b146103e457610109565b80639979c009146102735780639af1d35a1461028f578063b187bd26146102ba578063bc197c81146102e557610109565b806354ab6269116100dc57806354ab6269146101b457806364628253146101dd5780636bfb0d0114610206578063715018a6146102315780638da5cb5b1461024857610109565b806301ffc9a71461010e5780632a774e311461014b5780632d21a464146101745780633d18678e1461018b575b600080fd5b34801561011a57600080fd5b5061013560048036038101906101309190611554565b61040d565b604051610142919061159c565b60405180910390f35b34801561015757600080fd5b50610172600480360381019061016d9190611791565b610487565b005b34801561018057600080fd5b5061018961077b565b005b34801561019757600080fd5b506101b260048036038101906101ad9190611828565b6107f0565b005b3480156101c057600080fd5b506101db60048036038101906101d69190611893565b61080a565b005b3480156101e957600080fd5b5061020460048036038101906101ff91906118c0565b6108d0565b005b34801561021257600080fd5b5061021b6109d5565b604051610228919061190f565b60405180910390f35b34801561023d57600080fd5b506102466109db565b005b34801561025457600080fd5b5061025d6109ef565b60405161026a9190611939565b60405180910390f35b61028d60048036038101906102889190611954565b610a18565b005b34801561029b57600080fd5b506102a4610f27565b6040516102b1919061190f565b60405180910390f35b3480156102c657600080fd5b506102cf610f2d565b6040516102dc919061159c565b60405180910390f35b3480156102f157600080fd5b5061030c60048036038101906103079190611afd565b610f40565b6040516103199190611bdb565b60405180910390f35b34801561032e57600080fd5b5061034960048036038101906103449190611828565b610f55565b60405161035c9796959493929190611c84565b60405180910390f35b34801561037157600080fd5b5061037a61106c565b604051610387919061190f565b60405180910390f35b34801561039c57600080fd5b506103a5611074565b005b3480156103b357600080fd5b506103ce60048036038101906103c99190611cfa565b6110e8565b6040516103db9190611bdb565b60405180910390f35b3480156103f057600080fd5b5061040b60048036038101906104069190611d91565b6110fd565b005b60007f4e2312e0000000000000000000000000000000000000000000000000000000007bffffffffffffffffffffffffffffffffffffffffffffffffffffffff1916827bffffffffffffffffffffffffffffffffffffffffffffffffffffffff19161480610480575061047f82611180565b5b9050919050565b61048f6111ea565b600073ffffffffffffffffffffffffffffffffffffffff168573ffffffffffffffffffffffffffffffffffffffff16036104fe576040517f08c379a00000000000000000000000000000000000000000000000000000000081526004016104f590611e0a565b60405180910390fd5b828573ffffffffffffffffffffffffffffffffffffffff1662fdd58e33876040518363ffffffff1660e01b8152600401610539929190611e2a565b602060405180830381865afa158015610556573d6000803e3d6000fd5b505050506040513d601f19601f8201168201806040525081019061057a9190611e68565b10156105bb576040517f08c379a00000000000000000000000000000000000000000000000000000000081526004016105b290611f07565b60405180910390fd5b600260008154809291906105ce90611f56565b91905055506040518060e001604052808673ffffffffffffffffffffffffffffffffffffffff1681526020018581526020018481526020018381526020018281526020013373ffffffffffffffffffffffffffffffffffffffff1681526020016000151581525060016000600254815260200190815260200160002060008201518160000160006101000a81548173ffffffffffffffffffffffffffffffffffffffff021916908373ffffffffffffffffffffffffffffffffffffffff160217905550602082015181600101556040820151816002015560608201518160030190816106ba91906121aa565b506080820151816004015560a08201518160050160006101000a81548173ffffffffffffffffffffffffffffffffffffffff021916908373ffffffffffffffffffffffffffffffffffffffff16021790555060c08201518160050160146101000a81548160ff0219169083151502179055509050507f529217d0424b424626c9fb804ff1848ec212722052bd3dc8f65784d3167e967160025486868686863360405161076c979695949392919061227c565b60405180910390a15050505050565b61078361123c565b600360009054906101000a900460ff16156107d3576040517f08c379a00000000000000000000000000000000000000000000000000000000081526004016107ca9061233e565b60405180910390fd5b6001600360006101000a81548160ff021916908315150217905550565b6107f861123c565b6108006111ea565b8060048190555050565b61081261123c565b60004703610855576040517f08c379a000000000000000000000000000000000000000000000000000000000815260040161084c906123aa565b60405180910390fd5b600073ffffffffffffffffffffffffffffffffffffffff168173ffffffffffffffffffffffffffffffffffffffff16036108c4576040517f08c379a00000000000000000000000000000000000000000000000000000000081526004016108bb90612416565b60405180910390fd5b6108cd816112ba565b50565b6108d861123c565b6000471161091b576040517f08c379a000000000000000000000000000000000000000000000000000000000815260040161091290612482565b60405180910390fd5b600073ffffffffffffffffffffffffffffffffffffffff168273ffffffffffffffffffffffffffffffffffffffff160361098a576040517f08c379a000000000000000000000000000000000000000000000000000000000815260040161098190612416565b60405180910390fd5b8173ffffffffffffffffffffffffffffffffffffffff166108fc829081150290604051600060405180830381858888f193505050501580156109d0573d6000803e3d6000fd5b505050565b60025481565b6109e361123c565b6109ed60006113c4565b565b60008060009054906101000a900473ffffffffffffffffffffffffffffffffffffffff16905090565b610a206111ea565b600073ffffffffffffffffffffffffffffffffffffffff166001600084815260200190815260200160002060000160009054906101000a900473ffffffffffffffffffffffffffffffffffffffff1673ffffffffffffffffffffffffffffffffffffffff1603610ac5576040517f08c379a0000000000000000000000000000000000000000000000000000000008152600401610abc906124ee565b60405180910390fd5b6001600083815260200190815260200160002060050160149054906101000a900460ff1615610b29576040517f08c379a0000000000000000000000000000000000000000000000000000000008152600401610b209061255a565b60405180910390fd5b60008111610b6c576040517f08c379a0000000000000000000000000000000000000000000000000000000008152600401610b63906125c6565b60405180910390fd5b6000610b9782600160008681526020019081526020016000206004015461148890919063ffffffff16565b90506000610bb1606460045461149e90919063ffffffff16565b90506000610bc8828461148890919063ffffffff16565b90506000610bdf82856114b490919063ffffffff16565b905080341015610c24576040517f08c379a0000000000000000000000000000000000000000000000000000000008152600401610c1b90612632565b60405180910390fd5b8460016000888152602001908152602001600020600201541015610c7d576040517f08c379a0000000000000000000000000000000000000000000000000000000008152600401610c749061269e565b60405180910390fd5b84600160008881526020019081526020016000206002016000828254610ca391906126be565b925050819055506000600160008881526020019081526020016000206002015403610cf757600180600088815260200190815260200160002060050160146101000a81548160ff0219169083151502179055505b80341115610d59573373ffffffffffffffffffffffffffffffffffffffff166108fc610d2c83346114ca90919063ffffffff16565b9081150290604051600060405180830381858888f19350505050158015610d57573d6000803e3d6000fd5b505b6001600087815260200190815260200160002060000160009054906101000a900473ffffffffffffffffffffffffffffffffffffffff1673ffffffffffffffffffffffffffffffffffffffff1663f242432a6001600089815260200190815260200160002060050160009054906101000a900473ffffffffffffffffffffffffffffffffffffffff1633600160008b815260200190815260200160002060010154896040518563ffffffff1660e01b8152600401610e1a94939291906127a4565b600060405180830381600087803b158015610e3457600080fd5b505af1158015610e48573d6000803e3d6000fd5b505050506001600087815260200190815260200160002060050160009054906101000a900473ffffffffffffffffffffffffffffffffffffffff1673ffffffffffffffffffffffffffffffffffffffff166108fc859081150290604051600060405180830381858888f19350505050158015610ec8573d6000803e3d6000fd5b507f7de4035ced290be6d7724645d43bad448b5d8cc76743ff4da172c2d8e1caa0f58633604051610efa9291906127fc565b60405180910390a1610f1e30338888604051806020016040528060008152506110e8565b50505050505050565b60045481565b600360009054906101000a900460ff1681565b600063bc197c8160e01b905095945050505050565b60016020528060005260406000206000915090508060000160009054906101000a900473ffffffffffffffffffffffffffffffffffffffff1690806001015490806002015490806003018054610faa90611fcd565b80601f0160208091040260200160405190810160405280929190818152602001828054610fd690611fcd565b80156110235780601f10610ff857610100808354040283529160200191611023565b820191906000526020600020905b81548152906001019060200180831161100657829003601f168201915b5050505050908060040154908060050160009054906101000a900473ffffffffffffffffffffffffffffffffffffffff16908060050160149054906101000a900460ff16905087565b600047905090565b61107c61123c565b600360009054906101000a900460ff166110cb576040517f08c379a00000000000000000000000000000000000000000000000000000000081526004016110c290612871565b60405180910390fd5b6000600360006101000a81548160ff021916908315150217905550565b600063f23a6e6160e01b905095945050505050565b61110561123c565b600073ffffffffffffffffffffffffffffffffffffffff168173ffffffffffffffffffffffffffffffffffffffff1603611174576040517f08c379a000000000000000000000000000000000000000000000000000000000815260040161116b90612903565b60405180910390fd5b61117d816113c4565b50565b60007f01ffc9a7000000000000000000000000000000000000000000000000000000007bffffffffffffffffffffffffffffffffffffffffffffffffffffffff1916827bffffffffffffffffffffffffffffffffffffffffffffffffffffffff1916149050919050565b600360009054906101000a900460ff161561123a576040517f08c379a00000000000000000000000000000000000000000000000000000000081526004016112319061296f565b60405180910390fd5b565b6112446114e0565b73ffffffffffffffffffffffffffffffffffffffff166112626109ef565b73ffffffffffffffffffffffffffffffffffffffff16146112b8576040517f08c379a00000000000000000000000000000000000000000000000000000000081526004016112af906129db565b60405180910390fd5b565b6112c261123c565b60004711611305576040517f08c379a00000000000000000000000000000000000000000000000000000000081526004016112fc90612482565b60405180910390fd5b600073ffffffffffffffffffffffffffffffffffffffff168173ffffffffffffffffffffffffffffffffffffffff1603611374576040517f08c379a000000000000000000000000000000000000000000000000000000000815260040161136b90612416565b60405180910390fd5b60004790508173ffffffffffffffffffffffffffffffffffffffff166108fc829081150290604051600060405180830381858888f193505050501580156113bf573d6000803e3d6000fd5b505050565b60008060009054906101000a900473ffffffffffffffffffffffffffffffffffffffff169050816000806101000a81548173ffffffffffffffffffffffffffffffffffffffff021916908373ffffffffffffffffffffffffffffffffffffffff1602179055508173ffffffffffffffffffffffffffffffffffffffff168173ffffffffffffffffffffffffffffffffffffffff167f8be0079c531659141344cd1fd0a4f28419497f9722a3daafe3b4186f6b6457e060405160405180910390a35050565b6000818361149691906129fb565b905092915050565b600081836114ac9190612a6c565b905092915050565b600081836114c29190612a9d565b905092915050565b600081836114d891906126be565b905092915050565b600033905090565b6000604051905090565b600080fd5b600080fd5b60007fffffffff0000000000000000000000000000000000000000000000000000000082169050919050565b611531816114fc565b811461153c57600080fd5b50565b60008135905061154e81611528565b92915050565b60006020828403121561156a576115696114f2565b5b60006115788482850161153f565b91505092915050565b60008115159050919050565b61159681611581565b82525050565b60006020820190506115b1600083018461158d565b92915050565b600073ffffffffffffffffffffffffffffffffffffffff82169050919050565b60006115e2826115b7565b9050919050565b6115f2816115d7565b81146115fd57600080fd5b50565b60008135905061160f816115e9565b92915050565b6000819050919050565b61162881611615565b811461163357600080fd5b50565b6000813590506116458161161f565b92915050565b600080fd5b600080fd5b6000601f19601f8301169050919050565b7f4e487b7100000000000000000000000000000000000000000000000000000000600052604160045260246000fd5b61169e82611655565b810181811067ffffffffffffffff821117156116bd576116bc611666565b5b80604052505050565b60006116d06114e8565b90506116dc8282611695565b919050565b600067ffffffffffffffff8211156116fc576116fb611666565b5b61170582611655565b9050602081019050919050565b82818337600083830152505050565b600061173461172f846116e1565b6116c6565b9050828152602081018484840111156117505761174f611650565b5b61175b848285611712565b509392505050565b600082601f8301126117785761177761164b565b5b8135611788848260208601611721565b91505092915050565b600080600080600060a086880312156117ad576117ac6114f2565b5b60006117bb88828901611600565b95505060206117cc88828901611636565b94505060406117dd88828901611636565b935050606086013567ffffffffffffffff8111156117fe576117fd6114f7565b5b61180a88828901611763565b925050608061181b88828901611636565b9150509295509295909350565b60006020828403121561183e5761183d6114f2565b5b600061184c84828501611636565b91505092915050565b6000611860826115b7565b9050919050565b61187081611855565b811461187b57600080fd5b50565b60008135905061188d81611867565b92915050565b6000602082840312156118a9576118a86114f2565b5b60006118b78482850161187e565b91505092915050565b600080604083850312156118d7576118d66114f2565b5b60006118e58582860161187e565b92505060206118f685828601611636565b9150509250929050565b61190981611615565b82525050565b60006020820190506119246000830184611900565b92915050565b611933816115d7565b82525050565b600060208201905061194e600083018461192a565b92915050565b6000806040838503121561196b5761196a6114f2565b5b600061197985828601611636565b925050602061198a85828601611636565b9150509250929050565b600067ffffffffffffffff8211156119af576119ae611666565b5b602082029050602081019050919050565b600080fd5b60006119d86119d384611994565b6116c6565b905080838252602082019050602084028301858111156119fb576119fa6119c0565b5b835b81811015611a245780611a108882611636565b8452602084019350506020810190506119fd565b5050509392505050565b600082601f830112611a4357611a4261164b565b5b8135611a538482602086016119c5565b91505092915050565b600067ffffffffffffffff821115611a7757611a76611666565b5b611a8082611655565b9050602081019050919050565b6000611aa0611a9b84611a5c565b6116c6565b905082815260208101848484011115611abc57611abb611650565b5b611ac7848285611712565b509392505050565b600082601f830112611ae457611ae361164b565b5b8135611af4848260208601611a8d565b91505092915050565b600080600080600060a08688031215611b1957611b186114f2565b5b6000611b2788828901611600565b9550506020611b3888828901611600565b945050604086013567ffffffffffffffff811115611b5957611b586114f7565b5b611b6588828901611a2e565b935050606086013567ffffffffffffffff811115611b8657611b856114f7565b5b611b9288828901611a2e565b925050608086013567ffffffffffffffff811115611bb357611bb26114f7565b5b611bbf88828901611acf565b9150509295509295909350565b611bd5816114fc565b82525050565b6000602082019050611bf06000830184611bcc565b92915050565b600081519050919050565b600082825260208201905092915050565b60005b83811015611c30578082015181840152602081019050611c15565b60008484015250505050565b6000611c4782611bf6565b611c518185611c01565b9350611c61818560208601611c12565b611c6a81611655565b840191505092915050565b611c7e81611855565b82525050565b600060e082019050611c99600083018a61192a565b611ca66020830189611900565b611cb36040830188611900565b8181036060830152611cc58187611c3c565b9050611cd46080830186611900565b611ce160a0830185611c75565b611cee60c083018461158d565b98975050505050505050565b600080600080600060a08688031215611d1657611d156114f2565b5b6000611d2488828901611600565b9550506020611d3588828901611600565b9450506040611d4688828901611636565b9350506060611d5788828901611636565b925050608086013567ffffffffffffffff811115611d7857611d776114f7565b5b611d8488828901611acf565b9150509295509295909350565b600060208284031215611da757611da66114f2565b5b6000611db584828501611600565b91505092915050565b7f496e76616c696420204e667420636f6e74726163742061646472657373000000600082015250565b6000611df4601d83611c01565b9150611dff82611dbe565b602082019050919050565b60006020820190508181036000830152611e2381611de7565b9050919050565b6000604082019050611e3f600083018561192a565b611e4c6020830184611900565b9392505050565b600081519050611e628161161f565b92915050565b600060208284031215611e7e57611e7d6114f2565b5b6000611e8c84828501611e53565b91505092915050565b7f4f6e6c7920746f6b656e206f776e65722063616e206c69737420666f7220736160008201527f6c65000000000000000000000000000000000000000000000000000000000000602082015250565b6000611ef1602283611c01565b9150611efc82611e95565b604082019050919050565b60006020820190508181036000830152611f2081611ee4565b9050919050565b7f4e487b7100000000000000000000000000000000000000000000000000000000600052601160045260246000fd5b6000611f6182611615565b91507fffffffffffffffffffffffffffffffffffffffffffffffffffffffffffffffff8203611f9357611f92611f27565b5b600182019050919050565b7f4e487b7100000000000000000000000000000000000000000000000000000000600052602260045260246000fd5b60006002820490506001821680611fe557607f821691505b602082108103611ff857611ff7611f9e565b5b50919050565b60008190508160005260206000209050919050565b60006020601f8301049050919050565b600082821b905092915050565b6000600883026120607fffffffffffffffffffffffffffffffffffffffffffffffffffffffffffffffff82612023565b61206a8683612023565b95508019841693508086168417925050509392505050565b6000819050919050565b60006120a76120a261209d84611615565b612082565b611615565b9050919050565b6000819050919050565b6120c18361208c565b6120d56120cd826120ae565b848454612030565b825550505050565b600090565b6120ea6120dd565b6120f58184846120b8565b505050565b5b818110156121195761210e6000826120e2565b6001810190506120fb565b5050565b601f82111561215e5761212f81611ffe565b61213884612013565b81016020851015612147578190505b61215b61215385612013565b8301826120fa565b50505b505050565b600082821c905092915050565b600061218160001984600802612163565b1980831691505092915050565b600061219a8383612170565b9150826002028217905092915050565b6121b382611bf6565b67ffffffffffffffff8111156121cc576121cb611666565b5b6121d68254611fcd565b6121e182828561211d565b600060209050601f8311600181146122145760008415612202578287015190505b61220c858261218e565b865550612274565b601f19841661222286611ffe565b60005b8281101561224a57848901518255600182019150602085019450602081019050612225565b868310156122675784890151612263601f891682612170565b8355505b6001600288020188555050505b505050505050565b600060e082019050612291600083018a611900565b61229e602083018961192a565b6122ab6040830188611900565b6122b86060830187611900565b81810360808301526122ca8186611c3c565b90506122d960a0830185611900565b6122e660c083018461192a565b98975050505050505050565b7f4d61726b6574706c61636520697320616c726561647920706175736564000000600082015250565b6000612328601d83611c01565b9150612333826122f2565b602082019050919050565b600060208201905081810360008301526123578161231b565b9050919050565b7f5468657265206973206e6f20526576656e756500000000000000000000000000600082015250565b6000612394601383611c01565b915061239f8261235e565b602082019050919050565b600060208201905081810360008301526123c381612387565b9050919050565b7f496e76616c696420616464726573730000000000000000000000000000000000600082015250565b6000612400600f83611c01565b915061240b826123ca565b602082019050919050565b6000602082019050818103600083015261242f816123f3565b9050919050565b7f4e6f20526576656e756520746f20776974686472617700000000000000000000600082015250565b600061246c601683611c01565b915061247782612436565b602082019050919050565b6000602082019050818103600083015261249b8161245f565b9050919050565b7f4974656d20646f6573206e6f7420657869737400000000000000000000000000600082015250565b60006124d8601383611c01565b91506124e3826124a2565b602082019050919050565b60006020820190508181036000830152612507816124cb565b9050919050565b7f4974656d20616c726561647920736f6c64000000000000000000000000000000600082015250565b6000612544601183611c01565b915061254f8261250e565b602082019050919050565b6000602082019050818103600083015261257381612537565b9050919050565b7f416d6f756e74206d7573742062652067726561746572207468616e207a65726f600082015250565b60006125b0602083611c01565b91506125bb8261257a565b602082019050919050565b600060208201905081810360008301526125df816125a3565b9050919050565b7f496e73756666696369656e742066756e64730000000000000000000000000000600082015250565b600061261c601283611c01565b9150612627826125e6565b602082019050919050565b6000602082019050818103600083015261264b8161260f565b9050919050565b7f496e73756666696369656e742073746f636b0000000000000000000000000000600082015250565b6000612688601283611c01565b915061269382612652565b602082019050919050565b600060208201905081810360008301526126b78161267b565b9050919050565b60006126c982611615565b91506126d483611615565b92508282039050818111156126ec576126eb611f27565b5b92915050565b600061270d612708612703846115b7565b612082565b6115b7565b9050919050565b600061271f826126f2565b9050919050565b600061273182612714565b9050919050565b61274181612726565b82525050565b600082825260208201905092915050565b7f5472616e736665722073656e7400000000000000000000000000000000000000600082015250565b600061278e600d83612747565b915061279982612758565b602082019050919050565b600060a0820190506127b96000830187612738565b6127c6602083018661192a565b6127d36040830185611900565b6127e06060830184611900565b81810360808301526127f181612781565b905095945050505050565b60006040820190506128116000830185611900565b61281e602083018461192a565b9392505050565b7f4d61726b6574706c616365206973206e6f742070617573656400000000000000600082015250565b600061285b601983611c01565b915061286682612825565b602082019050919050565b6000602082019050818103600083015261288a8161284e565b9050919050565b7f4f776e61626c653a206e6577206f776e657220697320746865207a65726f206160008201527f6464726573730000000000000000000000000000000000000000000000000000602082015250565b60006128ed602683611c01565b91506128f882612891565b604082019050919050565b6000602082019050818103600083015261291c816128e0565b9050919050565b7f4d61726b6574706c616365206973207061757365640000000000000000000000600082015250565b6000612959601583611c01565b915061296482612923565b602082019050919050565b600060208201905081810360008301526129888161294c565b9050919050565b7f4f776e61626c653a2063616c6c6572206973206e6f7420746865206f776e6572600082015250565b60006129c5602083611c01565b91506129d08261298f565b602082019050919050565b600060208201905081810360008301526129f4816129b8565b9050919050565b6000612a0682611615565b9150612a1183611615565b9250828202612a1f81611615565b91508282048414831517612a3657612a35611f27565b5b5092915050565b7f4e487b7100000000000000000000000000000000000000000000000000000000600052601260045260246000fd5b6000612a7782611615565b9150612a8283611615565b925082612a9257612a91612a3d565b5b828204905092915050565b6000612aa882611615565b9150612ab383611615565b9250828201905080821115612acb57612aca611f27565b5b9291505056fea2646970667358221220bf850b329fefa3be0586ba692235580015b1415149b1b4802c85cf50267fd46264736f6c63430008110033",
    "linkReferences": {},
    "deployedLinkReferences": {}
}